:020000040800F2
:100000003805002001010008A713000809130008A3
:10001000A5130008990100087516000800000000EB
:10002000000000000000000000000000AB1300080A
:100030005303000800000000A9130008AD130008D6
:100040001B0100081B0100081B0100081B01000820
:100050001B0100081B0100081B0100081B01000810
:100060001B0100081B0100081B0100081B01000800
:100070001B0100081B0100081B0100081B010008F0
:10008000110300081D0300081B0100081B010008E4
:100090001B0100081B0100081B0100081B010008D0
:1000A0001B0100081B0100081B0100081B010008C0
:1000B0001B0100081B0100081B0100081B010008B0
:1000C0001B0100081B0100081B0100081B010008A0
:1000D0001B0100081B010008691600081B0100082D
:1000E0001B0100081B0100081B010008DFF80CD0F1
:1000F00000F040F8004800474D180008380500207F
:100100000648804706480047FEE7FEE7FEE7FEE7B1
:10011000FEE7FEE7FEE7FEE7FEE7FEE7FF13000867
:10012000ED000008D2B201E000F8012B491EFBD21D
:1001300070470022F6E710B513460A4604461946F2
:10014000FFF7F0FF204610BD30B50B4601460020FA
:100150002022012409E021FA02F59D4205D303FA89
:1001600002F5491B04FA02F52844151EA2F101020A
:10017000F1DC30BD064C074D06E0E06840F00103BD
:1001800094E8070098471034AC42F6D3FFF7B2FF6B
:10019000101A0008301A0008FEE7000070B5174C6E
:1001A0000025206820F470202060206840F4A02002
:1001B000206004E06D1CEDB2012000F0CBF81021AE
:1001C000204600F04DFB10B1642DF3D30FE0642DF9
:1001D0000DD2002504E06D1CEDB2012000F0BAF84C
:1001E0001021204600F03CFB18B1642D04D30120FF
:1001F00070BD642DEFD3FAE7002070BD0008014008
:1002000010B500F067F8BDE81040FFF7C7BF000069
:1002100070B50024134D04E0641CE4B2012000F02A
:1002200099F81021284600F01BFB08B1642CF3D389
:10023000002404E0641CE4B2012000F08BF81021DB
:10024000284600F00DFB08B9642CF3D3282000F0F9
:1002500081F81021284600F003FB002800D001207F
:1002600070BD00000008014070B500200446400643
:10027000050EFFF7CDFF641C2843E4B2082CF6D32B
:1002800070BD2DE9FC410D46064600F023F8FFF74E
:1002900085FF10B10120BDE8FC8100246F46FFF707
:1002A000E3FF3855641CE4B2052CF8D39DF8001028
:1002B0009DF801009DF803300A189DF802000344E0
:1002C0001A449DF804309A4201D129703070002000
:1002D000E1E7000010B50D4C206820F4702020608C
:1002E000206840F44030206000221021204600F0B9
:1002F000C4FA142000F0B2F901221021204600F0C7
:10030000BCFABDE810401E2000F024B800080140EF
:10031000014800F093B80000B0000020014800F050
:100320008DB80000F400002030B590F84050012452
:10033000AC40C56B6C60046863604368102B036855
:1003400003D099600068C26030BD9A600068C160E7
:1003500030BD70472DE9F0414FF0E0240546A76914
:1003600000F090FA064605EBC500C500BD420BD96A
:1003700000F088FAB042FBD00849781B0844A16914
:100380008142FCD8BDE8F0817D1BA069A842F9D963
:1003900000F078FAB042F8D0F4E70000401901000C
:1003A0007047000010B590F821100024022903D0F6
:1003B0000421816301243DE001680A6822F00E02F5
:1003C0000A6001680A6822F001020A601A4A01689C
:1003D000914201D1012121E0174A1432914201D109
:1003E00010211BE0144A2832914201D1891515E0F1
:1003F000114A3C32914201D189140FE00E4A503229
:10040000914202D14FF4803108E00B4A64329142AC
:1004100002D14FF4801101E04FF08071064A083A92
:100420005160012180F82110002180F82010416BDB
:1004300001B18847204610BD080002402DE9F05F59
:10044000C16B0C6801680B68D0F840C0042202FA46
:100450000CF2494DDFF824A1494E4A4FDFF828B18C
:10046000DFF828E122422CD05A072AD50A689206E2
:1004700003D40A6822F004020A600168A94201D18B
:10048000042219E0514501D1402215E0B14202D1C8
:100490004FF4806210E0B94202D14FF480420BE089
:1004A000594502D14FF4802206E0714502D14FF444
:1004B000800201E04FF080622F4908394A60C16A2A
:1004C0003BE04FF0020808FA0CF818EA040F4FF06E
:1004D00000094FF0010235D05FEA837832D50B680E
:1004E0009B0605D40B6823F00A030B6080F82120DB
:1004F0000168A94201D1022219E0514501D120220F
:1005000015E0B14202D14FF4007210E0B94202D1BD
:100510004FF400520BE0594502D14FF4003206E08F
:10052000714502D14FF4001201E04FF00072124900
:1005300008394A6080F82090816A00291AD0BDE805
:10054000F05F0847082505FA0CF5254212D01B0775
:1005500010D50B6823F00E030B6090F84010C36BAE
:1005600002FA01F15960826380F8212080F820901E
:10057000016BE2E7BDE8F09F080002401C0002406A
:100580003000024044000240580002406C0002402B
:1005900030B528B308C8134914221944B1FBF2F14D
:1005A0008900C16310498163022141771A6843F6CB
:1005B000F0718A43D0E900142143D0E902452C436D
:1005C0002143046921434469214384692143114340
:1005D000196000214163012242770177084630BD4E
:1005E000012030BDF8FFFDBF0000024070B5044699
:1005F00090F82000002501280CD0012084F820006C
:1006000094F821600020012E06D084F820000225F5
:10061000284670BD022070BD022684F82160A063C8
:100620002068066826F0010606602046FFF77CFE7B
:10063000E06A00282068016802D041F00E0106E05F
:1006400021F0040101602068016841F00A010160A5
:100650002068016841F001010160D9E770B50446E6
:1006600000F010F90546601C02D0044800780444EC
:1006700000F008F9401BA042FAD370BD1C00002016
:100680002DE9F84FDFF8B891002409F1040A0AF1C6
:10069000040B23460F270BF1040EC9E00125A540EA
:1006A0002A40AA427DD1674ED1F804C0ACEB0608BF
:1006B000B44532D014DCBCF1030F3AD009DCBCF1F4
:1006C000000F2AD0BCF1010F1CD0BCF1020F31D1B8
:1006D0001DE0BCF1110F17D0BCF1120F2AD119E0A7
:1006E000B8F5881F19D006DCB8F5803F15D0B8F5ED
:1006F000801F1FD111E0B8F5001F0ED0B8F5041F00
:1007000018D10AE0CB6815E0CB681B1D12E0CB685E
:1007100008330FE0CB680C330CE08B682BB1012B56
:100720004FF0080303D0456104E0042302E00561B3
:1007300000E00023FF2A01D8064601E000F104068C
:100740004FEA840501D9A5F12005D6F8008007FA03
:1007500005FC28EA0C0803FA05F548EA0508C6F87E
:1007600000804D68ED0062D5374DAE6946F0010658
:10077000AE61AD6924F0030605F001050095334D27
:1007800006EB050CDCF80850A607360F07FA06F84A
:1007900025EA0805DFF8B880404503D14FF000088E
:1007A00017E044E0DFF8AC80404502D14FF001088B
:1007B0000FE0DFF8A480404502D14FF0020808E0C6
:1007C000DFF89880404502D14FF0030801E04FF078
:1007D000040808FA06F848EA0508CCF808804D68CD
:1007E000D9F80060ED034D4601D5164300E096436D
:1007F0002E604D68DAF80060AD03554601D516430A
:1008000000E096432E604D68DBF80060ED025D4627
:1008100001D5164300E096432E604D68DEF8006077
:10082000AD02754601D5164300E096432E60641C68
:100830000D682A46E5407FF431AFBDE8F88F00002F
:1008400000040140000011100010024000000140AF
:1008500000080140000C014000100140001401405C
:100860008068084000D001207047C26821EA020376
:100870000A4043EA0241016170470AB101617047D1
:100880000904FBE701488068704700001C00002055
:100890000248816802781144816070471C00002082
:1008A000074810B5016841F010010160032000F015
:1008B00075F8002000F006F800F024F8002010BDC4
:1008C0000020024070B50D4D04464FF47A7128782F
:1008D000B1FBF0F00A490968B1FBF0F000F0ECFA66
:1008E00048B9102C07D200222146501E00F036F8DD
:1008F00000206C6070BD012070BD00001C00002055
:10090000280000200C4808B5816941F0010181618F
:10091000816901F001010091C16941F08051C1611B
:10092000C06900F0805000900448416821F0E06107
:1009300041F00071416008BD00100240000001401C
:10094000002809DB00F01F020121914040098000CE
:1009500000F1E020C0F8001170470000F0B40E4B29
:100960001B680C46C3F30223C3F10705042D00D90D
:100970000425191D072901D2002300E0DB1E0126F2
:1009800006FA05F1491E214099409E40761E164008
:100990003143F0BC00F080BE0CED00E0064900F0F1
:1009A000070208684FF6FF03184040EA0220034A96
:1009B00010430860704700000CED00E00000FA05ED
:1009C0002DE9F0470F46050061D0434E306800F036
:1009D0000700B84209D2306820F007003843306081
:1009E000306800F00700B84251D128683B4C8107BD
:1009F00012D5400703D5606840F4E0606060287855
:100A0000000703D5606840F4605060606068A968C2
:100A100020F0F000084360602878C00728D068689C
:100A2000012810D02168022810D0890700292EDA69
:100A3000616821F0030101436160FFF723FF8046F5
:100A400041F288390DE021688903EFE78901EDE77C
:100A5000FFF718FFA0EB0801494502D90320BDE8C4
:100A6000F0876068696800F00C00B0EB810FEFD18F
:100A7000306800F00700B8420BD9306820F007005A
:100A800038433060306800F00700B84201D00120E0
:100A9000E5E72878400705D56068E96820F4E0605C
:100AA000084360602878000706D56068296920F44B
:100AB000605040EAC100606000F038F86168084AA0
:100AC000C1F30311515CC84006490860064800683C
:100AD000FFF7F8FE0020C2E70020024000100240AD
:100AE000F8190008280000202000002004480549CB
:100AF00000684968044AC1F30221515CC84070474C
:100B00002800002000100240081A00080448054987
:100B100000684968044AC1F3C221515CC84070476B
:100B20002800002000100240081A000812A185B019
:100B30000FC98DE80F0014A0144A00680490516892
:100B4000134801F00C03042B10D0082B0ED1C1F375
:100B50008343C9031DF803000AD5516804AAC1F3F1
:100B60004041515C0A4A5043B0FBF1F005B0704778
:100B700008494843FAE7000002030405060708098C
:100B80000A0B0C0D0E0F10100102000000100240A5
:100B900000127A0000093D002DE9F84F040070D0E2
:100BA0002078C04DC00749D06868C0F38100012893
:100BB00007D06868C0F38100022809D16868C003C3
:100BC00006D52868800339D560680028E7D035E06D
:100BD0006068B0F5803F0BD010B1B0F5A02F11D0F8
:100BE000286820F480302860286820F4802002E003
:100BF000286840F480302860606890B1FFF742FEBA
:100C000006460AE0286840F480202860F0E700BF2C
:100C1000FFF738FE801B642873D828688003F7D557
:100C20000CE0FFF72FFE064605E000BFFFF72AFEA7
:100C3000801B6428F0D828688003F7D420789A4E67
:100C400080074FF001094FF0000839D5686810F0AF
:100C50000C0F07D06868C0F38100022809D16868CA
:100C6000C00306D42868800714D52069012808D15C
:100C700010E02069B0B1C6F80090FFF703FE074608
:100C800005E00AE1FFF7FEFDC01B0228C4D8286872
:100C90008007F7D52868616920F0F80040EAC100B4
:100CA00028600DE0C6F80080FFF7ECFD074604E081
:100CB000FFF7E8FDC01B022823D828688007F7D477
:100CC000207800072CD57948A169D9B1C0F80090E7
:100CD000FFF7D8FD074604E0FFF7D4FDC01B02284C
:100CE0000FD8686A8007F7D571484FF4FA51006849
:100CF000B0FBF1F0009000BF0098411E0091FAD2C5
:100D00000EE080E0C0F80080FFF7BCFD074604E07D
:100D1000FFF7B8FDC01B022875D8686A8007F7D4B2
:100D20002078400760D5E8690027C00008D4E8694A
:100D300040F08050E861E869012700F080500090A1
:100D40005C480168C90513D40168834641F4807189
:100D50000160FFF797FD824606E000BFFFF792FDB6
:100D6000A0EB0A0064284ED8DBF80000C005F5D5DA
:100D7000E06801280AD008B1052813D0286A20F0BD
:100D800001002862286A20F0040002E0286A40F08E
:100D900001002862E06841F2883B98B1FFF772FDDC
:100DA00082460BE0286A40F004002862EEE700BFAC
:100DB000FFF768FDA0EB0A0159455AD8286A800759
:100DC000F6D50CE0FFF75EFD824605E0FFF75AFD21
:100DD000A0EB0A0159454CD8286A8007F6D41FB108
:100DE000E86920F08050E861E06988B36968C1F380
:100DF0008101022944D00228C6F8608004D0FFF7A0
:100E000041FD044638E034E0FFF73CFD074604E0CE
:100E1000FFF738FDC01B02282BD828688001F7D4C3
:100E2000206AB0F5803F05D16868A16820F40030E1
:100E300008436860D4E908010843696821F4741123
:100E400008436860C6F86090FFF71CFD044606E0A2
:100E500025E000BFFFF716FD001B022809D828680F
:100E60008001F7D51BE000BFFFF70CFD001B022837
:100E700002D90320BDE8F88F28688001F4D40EE081
:100E80000128F7D06868226A00F48031914204D1C9
:100E9000616A00F47010884201D00120EAE7002066
:100EA000E8E7000000100240000042428004424295
:100EB000280000200070004010B5401EB0F1807F77
:100EC00001D3012010BD4FF0E02460610F216017B5
:100ED00000F0E2FB0020A06107202061002010BD8F
:100EE0007047000070B5026804461068D168536905
:100EF00010F00F0F52D003F0010501F490762E434D
:100F00005FD0C20705D0CA0503D5E26B42F00102EB
:100F1000E263420705D5DA0703D0E26B42F0020232
:100F2000E263820705D5DA0703D0E26B42F00402E0
:100F3000E263020707D501F020022A4303D0E26BE7
:100F400042F00802E263E26B002A33D0800604D547
:100F5000880602D5204600F0B3FA20684069E16BAC
:100F6000C0F38010090700D428B3204600F091FA9E
:100F70002068416949061AD5416921F04001416163
:100F8000606BA0B12D494163606BFFF70BFA00283D
:100F900010D0606B416BBDE870400847830610D5E8
:100FA0008B060ED52046BDE8704000F089BA204679
:100FB000FFF796FF70BD2046FFF792FF0020E06329
:100FC00070BD03062BD50B0629D594F839002128CE
:100FD000F6D1A068B0F5805F01D12069B0B1206A78
:100FE000411C2162216800784860E08C401E0004AA
:100FF000000CE084E4D12068C16821F08001C16068
:101000002068C16841F04001C16070BD206A00885D
:10101000C0F308005060206A801C2062E5E74006AB
:10102000F3D54806F1D5D168204621F04001D160C2
:10103000202184F8391000F065F970BD0114000812
:1010400070B5040004D094F83900002510B106E012
:10105000012070BD84F83850204600F023F8242089
:1010600084F839002068C16821F40051C16020462D
:1010700000F06CFA2068016921F490410161206858
:10108000416921F02A0141612068C16841F40051A1
:10109000C160E563202084F8390084F83A0000201C
:1010A00070BD0000F0B585B0002400940194029456
:1010B000039406463E4F03683E49022003223E4DFC
:1010C000BB4221D18B6943F480438B618B6903F46C
:1010D000804304938B6943F004038B618969039215
:1010E00001F0040104910102CDE90010694628468F
:1010F000FFF7C6FA2815CDE9000469462846029490
:10110000FFF7BEFA05B0F0BD2C4FBB42FAD1CB6958
:1011100043F40033CB61CB6903F4003304938B6950
:1011200043F004038B618969039201F00401049187
:101130000421CDE9001069462846FFF7A1FA0820EE
:10114000CDE90004694628460294FFF799FA1D4D3F
:101150001B488027C5E90004C5E9024720202C610F
:10116000C5E905402846EC61FFF712FA08B1FFF720
:1011700017F975636E621248134D143001C51020C3
:1011800091C5114845F810496C61AC61EC61FFF7FD
:10119000FFF908B1FFF704F9356300221146262054
:1011A0006E62FFF7DBFB2620FFF7CAFBAAE7000011
:1011B0000038014000100240000801400044004097
:1011C0006C000240B0000020F400002070470000D6
:1011D0002DE9F843044690F839001F4616460D469F
:1011E00020284CD1C5B1BEB194F83800012846D0B2
:1011F000012084F838004FF00008C4F83C8021201A
:1012000084F83900FFF73EFBA6848146E684A06897
:10121000B0F5805F03D004E00120BDE8F8832069C9
:1012200028B12E465FF0000584F838800EE00026D5
:10123000FAE78021204600F0E5F9A0B9AEB116F832
:10124000010B21684860E08C401EE084E08C4B4636
:101250004FF0000200970028EBD14FF040012046EC
:1012600000F0D0F930B10320D7E735F8020BC0F316
:101270000800E6E7202084F839000020CDE70220AE
:10128000CBE7000070B5044690F83900202830D133
:1012900069B362B394F8380001282AD0012084F899
:1012A00038002162A284E2840025E563212084F8CD
:1012B0003900236B10489862236B1048D862236B67
:1012C0000F481863206B134645632668206B321D58
:1012D000FFF78CF921686FF04000086084F83850FF
:1012E0002068416941F080014161002070BD01200A
:1012F00070BD022070BD00005B1400088914000856
:101300001114000870477047FEE700002DE9F04116
:1013100086B00024204800940194029403948169CB
:1013200041F010018161816901F01001049181692E
:1013300041F020018161816901F0200104918169FE
:1013400041F0040181618069144F00F004004FF402
:1013500000550490002229463846FFF78EFADFF840
:101360004080012210214046FFF787FA00950226AF
:1013700001250396CDE9015469463846FFF780F907
:101380001020CDE90005CDE9024669464046FFF749
:1013900077F906B0BDE8F08100100240001001406E
:1013A00000080140FEE7704770477047FFF770BACA
:1013B00030B58FB028216846FEF7BBFE14210AA87D
:1013C000FEF7B7FE01210804CDE9001000240294C5
:1013D00002250491CDE907504FF4E01009906846CA
:1013E000FFF7DAFB0F20CDE90A056802CDE90C40D2
:1013F00002210AA80E94FFF7E3FA0FB030BD704740
:1014000010B5406A0021C185C184FFF769FD10BD98
:1014100070B5446A2068406994F83910C0F3C01070
:101420000025212904D118B1E584204600F03FF8B9
:101430002068406994F83A10C0F38010222904D142
:1014400018B1E585204600F024F8E06B40F010006C
:10145000E0632046FFF744FD70BD10B50146406AC9
:101460000968096889060CD40021C18401684A69A9
:1014700022F080024A610068C16841F04001C16009
:1014800010BDFFF73FFF10BD10B5406AFFF73BFFEF
:1014900010BD0168CA6822F49072CA6001684A6986
:1014A00022F001024A61202180F83A107047016859
:1014B000CA6822F0C002CA60202180F83910704743
:1014C00010B590F83A10222901D0022010BD826890
:1014D0004FF480539A4201D1016921B1816A9A4245
:1014E0001BD04AB10AE00268816A5268C2F308025E
:1014F0000A80816A891C08E0026972B10268526838
:1015000002F07F020A70816A491C8162C18D491E06
:101510000904090CC18503D016E002685268F1E79E
:101520000168CA6822F02002CA600168CA6822F411
:101530008072CA6001684A6922F001024A61202172
:1015400080F83A10FFF742FE002010BD70B5044647
:1015500000680169E26821F4405111430161216989
:10156000A0680843616908432168CA6841F20C63B6
:101570009A430243CA6020684169A26921F440711C
:10158000114341611E492068884202D1FFF7BEFA2B
:1015900001E0FFF7ABFA00EBC00101EB001260685D
:1015A00064218000B2FBF0F3B3FBF1F36FF0180697
:1015B0007343B2FBF0F5B2FBF0F605EB8305322383
:1015C00003EB0515B5FBF1F5B6FBF1F605F0F005FB
:1015D00005EB0615B2FBF0F6B2FBF0F0B0FBF1F054
:1015E0006FF01802504306EB800003EB0010B0FBD5
:1015F000F1F0216800F00F002844886070BD000001
:10160000003801402DE9F041984617460E46044641
:10161000069D1DE0681C1BD02DB1FFF733F9A0EB30
:101620000800A84214D92068C16821F4D071C160B3
:101630002068416921F001014161202084F83900CE
:1016400084F83A00002084F838000320BDE8F081D7
:101650002068006836EA000004D00020B842D9D0E3
:101660000020F3E70120F9E70148FFF73BBC000049
:1016700070000020FEE700000FB4054B10B503A971
:10168000044A029800F028F810BC5DF814FB000032
:101690002D1800082C0000200907090E002804DB83
:1016A00000F1E02080F80014704700F00F0000F116
:1016B000E02080F8141D704702E008C8121F08C11E
:1016C000002AFAD170477047002001E001C1121FC3
:1016D000002AFBD1704700002DE9FF4F89B09B46DF
:1016E0000446002506E025280BD05A460B99904762
:1016F000641C6D1C20780028F5D10DB02846BDE88B
:10170000F08F0027B8460122474900E0074314F84C
:10171000013F203B02FA03F00842F7D120782E283F
:1017200019D114F8010F47F004072A280ED06FF0E2
:101730002F022078A0F1300109290CD808EB88018C
:1017400002EB410100EB0108641CF2E70A98641CFB
:1017500050F8048B0A9020780028CED0642808D056
:10176000692806D075281ED05A460B9990476D1CE3
:1017700058E00A994FF00A0901C90A91002802DAD3
:1017800040422D2102E0390504D52B218DF820108F
:10179000012103E0F90704D02021F7E78A4608AECB
:1017A0000DE00021FAE70A994FF00A0901C90A91F0
:1017B000F7E74946FEF7C8FC303106F8011D00285E
:1017C000F7D1ADEB060000F12009780701D44FF006
:1017D0000108C84502DDA8EB090000E000208046B2
:1017E000002706E008A85A46C05D0B9990476D1C7B
:1017F0007F1C5745F6DB04E030205A460B99904792
:101800006D1CB8F10001A8F10108F5DC05E016F83F
:10181000010B5A460B9990476D1CB9F10001A9F1D3
:101820000109F4DC641C65E70928010013B54FF4D5
:101830007A73012269460448FFF7CAFC0120FEF7CB
:101840000DFF00201CBD00003000002008B5FFF790
:1018500027F8FFF7ADFDFFF759FD5848416941F002
:10186000010141614069002200F001000090114631
:101870001020FFF773F81020FFF762F800221146DE
:101880001120FFF76BF81120FFF75AF84D484C492B
:101890004FF4E13500240160C0E901540C26C46016
:1018A000C0E904468461C461FFF7CAFB4548464964
:1018B00040300160C0E90154C460C0E9044684615D
:1018C000C461FFF7BDFB4FF47A7405E03FA0FFF75A
:1018D000D3FE2046FEF7C2FEFEF792FC0028F5D1AB
:1018E0003E4DDFF8FCA06E1D4FF064080A2405F1A0
:1018F00010074FF400594FF4FA6B3849491C481E41
:10190000FEF7BFFC6A78297836A0FFF7B5FE287885
:10191000B0FBF8F23032F271B0FBF4F2B2FBF4F348
:1019200004FB132230323272B0FBF4F204FB1200DB
:10193000303070726878B0FBF8F13031F971B0FB7B
:10194000F4F1B1FBF4F204FB121130313972B0FB47
:10195000F4F104FB110030307872204919480A2252
:10196000491D4030FFF78EFC0120FEF777FE1B4932
:1019700014480322891C4030FFF784FC0120FEF745
:101980006DFE16490F480A2210314030FFF77AFCED
:101990000120FEF763FE11490A480322891C4030EA
:1019A000FFF770FC0120FEF759FE49465046FEF74E
:1019B0005CFF5846FEF752FE9FE700000010024011
:1019C00000380140300000200044004044485431B9
:1019D00031204572726F72200D0A00000000002055
:1019E0000010014074656D702025642C2068756DB1
:1019F000692025640D0A00000000000000000000BE
:101A000001020304060708090000000001020304A4
:101A1000301A00080000002030000000B81600084E
:101A2000601A00083000002008050000C8160008F1
:101A30000000FFFFFF6E302E76616C3D000000005D
:101A40006E312E76616C3D00000000000100000048
:101A500010000000000000000024F400000000005E
:04000005080000ED02
:00000001FF
